:020000040800F2
:10000000D81F0020A9010008A52100082318000816
:10001000A1210008C1140008D92B0008000000002D
:100020000000000000000000000000001D28000883
:10003000611600080000000045220008472800085B
:10004000C3010008C3010008C3010008B52500086A
:10005000C3010008C3010008C3010008C301000870
:10006000C3010008C3010008C3010008C301000860
:10007000C3010008C3010008C3010008C301000850
:10008000C3010008C3010008C3010008C301000840
:10009000C3010008C3010008C3010008C301000830
:1000A000C3010008C3010008C3010008C301000820
:1000B000C3010008C3010008C3010008C301000810
:1000C000C3010008C3010008C3010008C301000800
:1000D000C3010008AD280008C3010008C3010008DF
:1000E000C3010008C3010008C301000800F002F8C2
:1000F00000F04AF80AA090E8000C82448344AAF178
:100100000107DA4501D100F03FF8AFF2090EBAE875
:100110000F0013F0010F18BFFB1A43F0010318473B
:100120003082000050820000103A24BF78C878C1A5
:10013000FAD8520724BF30C830C144BF04680C60ED
:10014000704700000023002400250026103A28BF35
:1001500078C1FBD8520728BF30C148BF0B60704739
:10016000662904F07283642900F07C8000207047C7
:100170001FB500F0C5FB04000020002103F064FD62
:10018000E0601FBD10B510BD00F0BAFC1146FFF7CE
:10019000EFFF02F09BFD00F0D8FC03B4FFF7F2FF85
:1001A00003BC02F036FD00000948804709480047BB
:1001B000FEE7FEE7FEE7FEE7FEE7FEE7FEE7FEE717
:1001C000FEE7FEE704480549054A064B7047000074
:1001D00049280008ED000008D8190020D81F002089
:1001E000D81B0020D81B0020704700000FB41CB59E
:1001F000074B06AA7B4469460090059800F067FB10
:100200000020694600F076FB1CBC5DF814FB000082
:10021000FD06000070B5044685690068C10601D579
:10022000302600E02026C00707D070BDD4E90121A8
:1002300030469047206A401C20626D1EF6D570BD86
:1002400070B5044685690078C00707D170BDD4E950
:10025000012120209047206A401C20626D1EF6D5A7
:1002600070BD00002DE9F041064600241068752994
:10027000314616A510D0AFF30080002802DA4042C4
:1002800013A507E031688A0701D512A502E04907E6
:1002900004D511A5012401E0AFF3008000210A225A
:1002A00006F1240709E0B0FBF2FCB0FBF2F302FB1D
:1002B0001C00303078541846491C0028F3D12346DE
:1002C0002A463046BDE8F04100F093B80000000037
:1002D0002D0000002B000000200000002DE9F04759
:1002E0004FF0000A89460446C0F820A02046E16885
:1002F0008847002876D0252806D0D4E901219047E8
:10030000206A401C2062F1E7E1682046002588470A
:10031000C4F81CA006460027C4F818A02A2E09D04D
:10032000304602F06FFC38B304EB8708303EC8F863
:10033000186019E059F8041B204604EB870291610C
:10034000E1688847012F064618D1E069002820DAC5
:1003500025F020051DE0D8F8180000EB800006EB22
:1003600040003038C8F818002046E1688847064643
:1003700002F048FC0028EED1012F0AD02E2E08D121
:100380002046E16888477F1C0646022F45F020057D
:10039000C4DBA069002803DA404245F00105A061F2
:1003A000E80701D025F01005B6B1A6F141001928E3
:1003B00002D8203645F400654A463146204625607D
:1003C0004D46FFF7CDFE58B1012806D0ED1D25F0B2
:1003D000070000F1080989E704E005F1040985E751
:1003E00030468AE7206ABDE8F0877047704770475B
:1003F00070472DE9F0470D4699469246044600F1B4
:1004000024080168880604D5E06921F01001216004
:1004100000E00120A84201DD471B00E00027A169A0
:100420007A1902EB0900081AA0612078C00602D4EC
:100430002046FFF7EFFE002608E0D4E901211AF874
:1004400006009047206A401C761C20624E45F4DB73
:100450002078C0060AD52046FFF7DCFE06E0D4E986
:10046000012130209047206A401C2062381EA7F1ED
:100470000107F4DC07E0D4E9012118F805009047F2
:10048000206A401C2062281EA5F10105F3DC2046ED
:10049000FFF7D6FE2078000602D50220BDE8F087DF
:1004A0000120FBE770472DE9FF4F0C461E464FF039
:1004B000FF378BB0D2E90001DDF860800A908A46F0
:1004C000C1F30A5505B93D46002108464FF000002A
:1004D000BAF1000F00F4400005DA00EB80004FF4A1
:1004E000400101EA50004FEA9059B9F1010F00DDD7
:1004F000B9460A9850EA4A000ED044F61050A5F2C8
:10050000FF3545432F14B8F1000F1ED07542291E48
:100510001EDDC9F100021CE0B8F1010F4FF0000030
:1005200001D0302103E0F24305E02154401CB042E9
:10053000FBDB30460022002121540B99C1F80880D2
:10054000C1E900200FB0BDE8F08FBD1B6D1CDEE7D8
:100550004A4600DA694206A800F05CFA06AB93E866
:10056000070003AB83E8070050460A9900F036FB0A
:100570008DE80700A0F500501F3800900398002D6B
:100580000ADD42F21F014A460844002303A90390F2
:10059000684600F09FFD09E0A0F500504A461F386C
:1005A000002303A90390684600F0A9FD8DE8070029
:1005B0000004000C03D04FF0FF30410800E010466B
:1005C000B8F1000F03D00022009215461EE0751E00
:1005D00005D400F099F9303262556D1EF9D5B34655
:1005E0000122084302D000227F1C04E0207830283A
:1005F00001D100227F1E002A099784D01DE0112D11
:1006000007DA00F081F9303262556D1C50EA0102C0
:10061000F5D1084302D00098C8B10EE00021681E51
:1006200005E0235C625C63542254401E491C8142F5
:10063000F7DBAB46A81B401E0990002004F80B0016
:100640000B98099AC0F80880C0E9002B7AE71126B8
:100650004FF0000857E72DE9F04F88460446D21DB9
:1006600022F0070191B0D1E90001CDE90A0102F0C1
:10067000B5FA02460B98C00F01D02D2007E0206884
:10068000810701D52B2002E0202101EAC000032AC6
:10069000099001D0072A05DB03464146204600F0B9
:1006A00079F90BE12078800601D5E06900E00620A9
:1006B000B8F1650F814606D0B8F1660F18D0B8F1D1
:1006C000670F70D131E00020B9F1110F009001DB0C
:1006D000112301E009F101030AAA01A90CA8FFF7FF
:1006E000E2FEDDE90C70002609F10105834647E0D2
:1006F00001204B4600904FF000470AAA01A90CA820
:10070000FFF7D1FEDDE90DB00C995D46002610B96A
:1007100009F101000D18B9EB050003D4C0F1FF3653
:1007200009F10105A5EB09002BE0B9F1010F01DA90
:100730004FF001090020B9F1110F0090484601DD8A
:10074000112300E003460AAA01A90CA8FFF7ABFE9B
:10075000DDE90C704D4600268346207800070AD458
:10076000AB4500DA5D4601A8012D04DD411911F801
:10077000011C302907D04F4502DA17F1040F04DAC3
:10078000012082460FE06D1EEEE7002F02DCED1B1C
:100790003E4403E0781CA84200DD7D1CB81B00F13C
:1007A000010A4FF000472078000703D4AA4501DB77
:1007B0004FF0FF3A0021B7F1004F0DF143088DF8DB
:1007C000431024D002202B23002F01DA7F422D2357
:1007D0000A21021EA0F1010000DC5FB197FBF1FCD1
:1007E00097FBF1F201FB1C7C17460CF1300C08F86A
:1007F00001CDEEE7A8F1010003702188090501D5BC
:10080000452100E06521A0F1010800F8011C0998CC
:100810000FA9A1EB0807FF1D00B10120411901EB51
:10082000EA70A1693844081A401EA0612078C00609
:1008300002D42046FFF7EEFC099828B1D4E9012143
:100840009047206A401C20622078C00622D52046AE
:10085000FFF7E0FC1EE0002E04DBB34502DD01A83B
:10086000805D00E03020D4E901219047206A401CDF
:100870002062761CAAF101005FEA000A0AD100F0AA
:100880003FF8C0680168405CD4E901219047206AC4
:10089000401C2062281EA5F10105DCDC07E0D4E93C
:1008A000012118F8010B9047206A401C2062381E75
:1008B000A7F10107F3DC2046FFF7C2FC032011B0CB
:1008C00041E6000001694A1C02610878704700B5E2
:1008D0008FB0CDE901310021059105497944CDE979
:1008E000031011466846FFF7F9FC0FB000BD000089
:1008F000E5FFFFFF0A6802F8010B0A60704700007D
:10090000004870479819002030B5B0F10A024FEA4C
:10091000900E71F100034EEA817EB0EB0E0061EBA8
:1009200091014FEA101E4EEA017E10EB0E0041EBE2
:1009300011114FEA102E4EEA016E10EB0E0041EB42
:1009400011214FEA104E4EEA014E10EB0E0041EB22
:100950001141401841F100014FEAD00040EA4170D6
:100960004FEAD10110EB80054FEA810444EA90740C
:1009700044EB01046D1944EB0404521BA3414FF0F6
:10098000000348BF0A3200D530BD401C41F10001D0
:1009900030BD00002DE9F0411F46044603260168E2
:1009A000072A01F4006004DB08B116A505E016A5CE
:1009B00003E008B115A500E015A521F010002060A6
:1009C000A069C01EA0610FB1401EA0612046FFF7C4
:1009D00021FC4FB1D4E9012138469047206A401CE0
:1009E0002062C01C206206E0206AFAE7D4E90121F7
:1009F00015F8010B9047761EF8D22046FFF720FC31
:100A0000BDE8F0814E414E006E616E00494E4600D9
:100A1000696E66002DE9F047814616468AB0354872
:100A200078440DC88DE80D0032487844801C03AC32
:100A30000DC884E80D0041F69B300844372190FB37
:100A4000F1F290FBF1F5A5F1800501FB12041B3CCE
:100A500002D56442012000E00020DFF898A0804623
:100A60000027FA44AAF1BE0A0EE0E0070AD0324697
:100A7000684607EB470101230AEB810100F03FFBC9
:100A80008DE8070064107F1C002CEED1194F7F44C5
:100A9000AE3F19E0E80715D007EB04100DF1180A76
:100AA00090E80E008AE80E00C068F04201D1981963
:100AB00008903246012306A903A800F020FB03ABEF
:100AC00083E807006D10641C002DE3D14FF0010393
:100AD00032466946B8F1000F03A802D000F0FAFAD6
:100AE00001E000F00CFBC9E90001C9F808200AB0D8
:100AF000BDE8F087B87800000048704778190020FA
:100B00007546FFF7F9FFAE4605006946534620F0EB
:100B10000700854618B020B5FFF754FBBDE820401C
:100B20004FF000064FF000074FF000084FF0000BA9
:100B300021F00701AC46ACE8C009ACE8C009ACE85C
:100B4000C009ACE8C0098D46704710B50446AFF344
:100B500000802046BDE81040FFF71FBB4FF0013C6E
:100B600050F8042B51F8043B9A4221D1A2EB0C031C
:100B7000934313EACC1317D150F8042B51F8043BDC
:100B80009A4215D1A2EB0C03934313EACC130BD179
:100B900050F8042B51F8043B9A4209D1A2EB0C0304
:100BA000934313EACC13DBD04FF00000704700BF33
:100BB000D01A01BAB1FA81F101F0180122FA01F05C
:100BC000CB40C1F12001DBB2C0B2C01A2CFA01F354
:100BD000D11A914311EAC311E6D170475FEA400C84
:100BE00008BF91F0000F4FEA8C234FEAC12243EA7D
:100BF00051514FEA1C5018BF00F5F0404FEA300049
:100C000018BF41F000415FEA6C5C00F02980BCF144
:100C1000FF3F08BF40F080407047130C06BF12042E
:100C20004FF0100C4FF0000C130E04BF12020CF129
:100C3000080C130F04BF12010CF1040C930F04BF36
:100C400092000CF1020CD30F04BF52000CF1010C06
:100C500011464FF00002A0F11F00A0EB0C007047FE
:100C600011F0004F08BF704731F000413FF4D5AF9D
:100C70000B0C06BF09044FF0100C4FF0000C0B0ECC
:100C800004BF09020CF1080C0B0F04BF09010CF1A1
:100C9000040C8B0F04BF89000CF1020CCB0F04BFB6
:100CA00049000CF1010CCCF12003A0EB0C0022FA5E
:100CB00003F302FA0CF241EA030100F1010070476C
:100CC00020F07F4C80EA030023F07F47ACEB070362
:100CD00003F57C5300F0004003F1FF032DE9804948
:100CE0004FEA154B09B44FEA144325EA0B4E24EAA8
:100CF00003480FF2042606EB132749083E785FEA03
:100D0000320203FB0667C7F5000707FB06F64FEA4A
:100D100054374FEAD64606F1020607FB066CCCF1C3
:100D2000005C4FEA1C472CEA074C07FB06F40CFB5F
:100D300006F504EB15464FEA961634BF00204FF037
:100D400000404FEAD13706FB07FC4FEA1C4C0CFB76
:100D50000BF7D21B03FB0CF761EB07010CFB0EF743
:100D6000B0EB074072EB17420CFB08F734BFA2EB65
:100D70000742B2EB074261EB17414FEA0C444FEADE
:100D8000910706FB07FC4FEA1C4C0CFB0BF7B0EB82
:100D9000C74072EB573203FB0CF734BFA2EBC742DC
:100DA000B2EBC74261EB57310CFB0EF7B0EBC7005B
:100DB00072EB57720CFB08F734BFA2EBC702B2EB21
:100DC000C70261EB5771039F4FEA816141EA9211BB
:100DD00004EBCC044FEAD1374FEA826206FB07FCF2
:100DE00042EA90124FEA80604FEA1C4C0CFB0BF772
:100DF000D21B03FB0CF761EB07010CFB0EF7B0EB0A
:100E0000074072EB17420CFB08F734BFA2EB074216
:100E1000B2EB074261EB17414FEA8C554FEA91075D
:100E200004EB9C2406FB07FC4FEA1C4C0CFB0BF765
:100E3000B0EBC74072EB573203FB0CF734BFA2EBA9
:100E4000C742B2EBC74261EB57310CFB0EF7B0EB78
:100E5000C70072EB57720CFB08F734BFA2EBC70256
:100E6000B2EBC70261EB577115EB4C254FEA81617C
:100E700041EA92114FEA82624FEAD13742EA901278
:100E800006FB07FC44F100044FEA80604FEA1C4C6B
:100E90000CFB0BF7D21B03FB0CF761EB07010CFB00
:100EA0000EF7B0EB074072EB17420CFB08F734BFAC
:100EB000A2EB0742B2EB074261EB174115EB1C15A1
:100EC0004FEA813141EA92414FEA823242EA90424E
:100ED0004FEA80304FEA0C7644F1000448EA0343BD
:100EE0004EEA0B484FF0000EB2EB080C71EB030713
:100EF00024BF624639464EEB0E0E4FF0000B001831
:100F0000524149414BEB0B0BB2EB080C71EB030761
:100F10007BF1000B24BF624639464EEB0E0E4FF0BC
:100F2000000B0018524149414BEB0B0BB2EB080C84
:100F300071EB03077BF1000B24BF624639464EEB91
:100F40000E0E51EA020718BF46F0010616EB0E76A8
:100F500055F1000254F1000103D5BDE88901BDE857
:100F60000088BDE88901BDE80048B619524141EB4F
:100F70000101A3F10103704780807F7E7D7C7B7A35
:100F80007978777676757473727171706F6E6E6D35
:100F90006C6C6B6A6A6968686766666564646363DB
:100FA00062616160605F5F5E5E5D5D5C5C5B5B5A61
:100FB0005A595958585757565655555554545353CE
:100FC00052525251515050504F4F4F4E4E4D4D4D29
:100FD0004C4C4C4B4B4B4A4A4A4949494848484774
:100FE00047474746464645454544444444434343B2
:100FF0004342424242414141002B9C4630D477005B
:101000002BD01CB54FEA370703B44FF010004FF058
:101010001001BAF1000F06D0BCF1000FDCBF40F0A8
:10102000080040F008014FF000000FBCBDE8104080
:101030000BF1010BBBF1010F08BF5FEA170722BFDD
:1010400012F1010211F101014FF0004143F10003DF
:1010500000F0004043EA00007047F9D35708D0E79A
:1010600046EA064613F1400F4FEA16461FDD13F11C
:10107000200FDFBF16430A46002120335B42BED05B
:10108000C3F1200746EA064602FA07F74FEA16467A
:1010900046EA0706C3F1200722FA03F201FA07F72E
:1010A00021FA03F14FF0000342EA0702A7E746EAFC
:1010B000020646EA06464FEA164646EA0106BCBF65
:1010C00046EA0646360C4FF000034FF000024FF0A0
:1010D000000194E72DE9804C9A46934670B491E85C
:1010E000380007C831EA400C48BF34EA430C03D546
:1010F000FFF7E6FDFFF780FFF0BCBDE8008C2DE9AF
:10110000804C9A46934670B491E8380007C810F0B6
:10111000804F08BF13F0804F03D100F005F8FFF7B0
:101120006BFFF0BCBDE8008C20F07F4780EA030035
:1011300023F07F4C07EB0C03A3F57C5300F0004039
:10114000A3F1FE0392F0000F00F0B38095F0000FC2
:1011500000F077802DE901494FEA11404FEA14462B
:1011600021EA004800FB06FC24EA064708FB06F6D5
:1011700007FB08F800FB07F718EB06484CEB164C8A
:101180004FEA124B18EB07484FEA15464CEB174055
:1011900022EA0B4E0BFB06FC25EA06470EFB06F681
:1011A00007FB0EFE0BFB07F71EEB064E4CEB164C37
:1011B0004FF000061EEB074E4CEB174B18EB0B08DD
:1011C00040F1000018EB0E0B58EB000840F1000056
:1011D0008F1A4FF000013CBFC943661B14BFB5EB2B
:1011E000040C00213CBFC943F61B4FEA17444EEAEA
:1011F0008E0E27EA04454FEA1C4704FB07622CEADF
:10120000074C05FB07F70CFB05F604FB0CFC16EB83
:10121000074642EB174216EB0C4642EB1C421BEB17
:10122000060658EB0202414146EA9E0601D5BDE89A
:101230000189B619524141EB0101A3F10103BDE857
:1012400001894FEA14454FEA114724EA054621EA8D
:10125000074C05FB07F406FB07F70CFB06F105FB43
:101260000CFC11EB074144EB17444FEA124711EB1A
:101270000C4144EB1C4422EA074C05FB07F206FB39
:1012800007F70CFB06F605FB0CFC16EB074642EBDA
:10129000174216EB0C4642EB1C456A1854F100014C
:1012A00048BF7047B619524141EB0101A3F1010358
:1012B000704795F0000F37D04FEA11424FEA1447BC
:1012C00021EA024624EA074C02FB07F106FB07F776
:1012D0000CFB06F402FB0CFC14EB074441EB17413A
:1012E0004FEA154714EB0C4441EB1C4125EA074C2F
:1012F00002FB07F506FB07F70CFB06F602FB0CFCEE
:1013000016EB074645EB174516EB0C4645EB1C4222
:10131000121951F1000148BF7047B619524141EB13
:101320000101A3F1010370474FEA14454FEA114749
:1013300024EA054621EA074C05FB07F106FB07F7FF
:101340000CFB06F24FF0000605FB0CFC12EB07420B
:1013500041EB174112EB0C4251EB1C4148BF704767
:10136000921841EB0101A3F1010370472DE9FE4FF3
:10137000002406E03D480068005D02A90855601C95
:10138000C4B2032CF6DB00240BE004EB4401384A22
:101390008818032202A902F0F5FB00B103E0601CEB
:1013A000C4B20C2CF1DB00BF601CC6B22F48006831
:1013B0000079202805D12D48006840793038C5B221
:1013C0000BE02A48006841792848006800793038E5
:1013D0000A2202FB00103038C5B224480068C079E8
:1013E00030384FF47A71484320490968097A303916
:1013F000642202FB01011D480068407A30380A224D
:1014000002FB001019490968897A0844303887B20C
:10141000184800684178174800680078303802FBA7
:101420000010303800F0FF0A1248006801791148B6
:101430000068C078303802FB0010303800F0FF0937
:101440000C480068C1790B4800688079303802FB8D
:101450000010303800F0FF0853462A46314638461F
:10146000CDE9009801F042F9BDE8FE8F1C00002094
:10147000664800082000002010B5012000F004FF9D
:10148000002000F001FF10BD08B5014600200090CB
:10149000034800900098084400900098008808BD18
:1014A000006C004008B500220092044A0092009AA5
:1014B00002440092009A116008BD0000006C0040D8
:1014C00000BFFEE708B501210D2000F0CDFE01218F
:1014D0000A4800F051F91020ADF8000014208DF8F2
:1014E000030003208DF802006946054800F0B9F8B2
:1014F0001021034800F093F908BD000000023000FD
:10150000000C014010B510210E4800F086F90520AE
:1015100001F0BEFB10210B4800F081F90A2001F018
:10152000B7FB1021074800F06FF908B1012400E073
:1015300000241021034800F072F91E2001F0A8FBDE
:10154000204610BD000C014070B50024082505E0C0
:101550006006040EFFF7D6FF04436D1E002DF7DC76
:10156000204670BD2DE9F04F87B00020069000F0B6
:1015700067F89B2001F06EFBFFF7C4FF05460A20C9
:1015800001F086FBFFF7BEFF06460A2001F080FB54
:1015900005F0010506F00106002D49D1002E47D1C6
:1015A000FFF7B0FF81460A2001F072FBFFF7CCFF86
:1015B00082460A2001F06CFBFFF7C6FF83460A2033
:1015C00001F066FB0BEB0A24B9F1010F16D1E443DD
:1015D000A4B2641C204602F0E3FC07460022154B2F
:1015E00002F032FD0022144BCDE9020102F080FB33
:1015F000CDE9040102F03EFB069015E0204602F022
:10160000ADFF019002F01EFE074600220B4B02F0D8
:101610001BFD0022084BCDE9020102F069FBCDE978
:10162000040102F027FB0690069807B0BDE8F08F92
:101630000020FAE700400FC000408F4000400F40FC
:1016400010B51021054800F0E8F84FF4FA7001F0E9
:101650001FFB1021014800F0E2F810BD000C014012
:1016600070472DE9F04102460025002600200023A6
:101670000024002791F803C00CF00F0591F803C077
:101680000CF0100CBCF1000F03D091F802C04CEA32
:10169000050591F800C0BCF1000F31D0146800209E
:1016A0002BE04FF0010C0CFA00F3B1F800C00CEA8B
:1016B00003069E4220D183004FF00F0C0CFA03F773
:1016C000BC4305FA03FC4CEA040491F803C0BCF1E6
:1016D000280F06D14FF0010C0CFA00FCC2F814C020
:1016E0000AE091F803C0BCF1480F05D14FF0010C9E
:1016F0000CFA00FCC2F810C0401C0828D1D31460BA
:10170000B1F800C0BCF1FF0F34DD546800202EE0BA
:1017100000F1080C4FF0010808FA0CF3B1F800C012
:101720000CEA03069E4221D183004FF00F0C0CFA05
:1017300003F7BC4305FA03FC4CEA040491F803C028
:10174000BCF1280F05D100F1080C08FA0CF8C2F81A
:10175000148091F803C0BCF1480F07D100F1080CC8
:101760004FF0010808FA0CF8C2F81080401C082855
:10177000CED35460BDE8F081F0B50A4600230024C2
:101780000021002500F00046B6F1004F02D11D4EA9
:10179000F16901E01B4E7168C0F3034583B200F4A8
:1017A0004016B6F5401F08D121F07061154E7668DD
:1017B00026F07066134F7E6012E000F48016B6F5D6
:1017C000801F06D1032606FA05F4A14341F070619B
:1017D00006E0460D360103FA06F6B14341F07061AA
:1017E00022B1460D360103FA06F6314300F00046F9
:1017F000B6F1004F02D1034EF16101E0014E71607C
:10180000F0BD0000000001400246002093680B403C
:101810000BB1012000E00020704741617047016179
:10182000704700BFFEE7000010B500200F490860B8
:101830000F48006820F070400D49086008460068B5
:1018400040F04050086000200A49C1F89C01022085
:1018500001F01EFA012005490860022001F018FA83
:1018600000200449C1F8980110BD00009881214270
:10187000000C01400080214208B50121082000F041
:10188000F3FCC020ADF8000010208DF80300032009
:101890008DF8020069460548FFF7E3FE0120044980
:1018A00008600449C1F89C0108BD0000000C01401B
:1018B000988121420080214210B500200F49086024
:1018C0000F48006820F070400D4908600846006825
:1018D00040F04050086001200A49C1F89C010220F4
:1018E00001F0D6F9012005490860022001F0D0F985
:1018F00000200449C1F8980110BD000098812142E0
:10190000000C01400080214270B50024134800689B
:1019100020F07040114908600846006840F000401F
:101920000860002516E000200D490860022001F043
:10193000AFF901200B49C1F898016006040E084870
:101940007C38006808B1601CC4B2012001F0A0F925
:10195000681CC5B2082DE6DB204670BD000C0140B6
:10196000988121420080214270B5044615480068E4
:1019700020F07040134908600846006840F040506D
:101980000860002010490860002517E0E0090E49B2
:10199000091D08606006040E022001F079F901209B
:1019A0000A49C1F89801022001F072F900200649A5
:1019B0000860022001F06CF9681CC5B2082DE5DB57
:1019C00070BD0000000C014098812142008021423E
:1019D00010B50F48006820F070400D4908600846B7
:1019E000006840F04050086001200A4908600A4938
:1019F000C1F89801042001F04BF900200549086066
:101A0000042001F045F900200349C1F8980110BDF8
:101A1000000C01409C8121420080214210B50F48FA
:101A2000006820F070400D4908600846006840F0EA
:101A30004050086000200A4908600A49C1F89C012A
:101A4000042001F025F90120054908600549C1F885
:101A50009C01042001F01CF910BD0000000C0140A5
:101A6000988121420080214210B50024144800686A
:101A700020F07040124908600846006840F00040BD
:101A8000086001200F49086001F002F901200E49A9
:101A9000C1F8980101F0FCF807E0601CC4B2FA2C10
:101AA00003DDFFF7BBFF012010BD0648803800684A
:101AB0000028F2D10349091F086000BFF4E70000C5
:101AC000000C01409C812142008021420146CA173E
:101AD00001EB92729210A1EB820292B9642091FB09
:101AE000F0F200FB121050B94FF4C87091FBF0F205
:101AF00000FB121008B9012070470020FCE701200C
:101B0000FAE70020F8E7000008B50121042000F002
:101B1000ABFB4FF40060ADF8000048208DF80300E7
:101B200069460248FFF79DFD08BD0000000801401E
:101B30002DE9F04107460C4615461E462A2000F0C6
:101B40006DFA384600F05AFA284600F057FA2B2072
:101B500000F064FA204600F051FA304600F04EFAE8
:101B60002C2000F05BFABDE8F08170B504460D460C
:101B700016462B46224629462046FFF7D9FF304617
:101B800000F03CFA70BD2DE9F04706460F461446BA
:101B90001D46DDF820A0681E83B2601E82B2394661
:101BA0003046FFF7C5FFB8460EE0B14606E05046A6
:101BB00000F024FA09F101001FFA80F9A145F6DBD3
:101BC00008F101001FFA80F8A845EEDBBDE8F087B8
:101BD00008B501210C2000F047FBB420ADF800004F
:101BE00010208DF8030003208DF8020069460D488F
:101BF000FFF737FD41F20200ADF8000010208DF82C
:101C0000030003208DF8020069460748FFF729FD0D
:101C1000B4210448FFF703FE41F202010248FFF736
:101C2000FEFD08BD00080140000C014010B5FFF7A3
:101C3000CFFF04216348FFF7F0FD642001F00AF8AC
:101C400004216048FFF7EBFD642001F003F84FF436
:101C500080515D48FFF7E1FD642000F0FBFF11209B
:101C600000F0DCF9782000F0F5FF362000F0D6F91E
:101C7000002000F0CCF93A2000F0D0F9052000F067
:101C8000C6F9B22000F0CAF90C2000F0C0F90C200F
:101C900000F0BDF9002000F0BAF9332000F0B7F9E8
:101CA000332000F0B4F9B72000F0B8F9352000F087
:101CB000AEF9BB2000F0B2F9322000F0A8F9C22042
:101CC00000F0ACF9012000F0A2F9C32000F0A6F961
:101CD000152000F09CF9C42000F0A0F9202000F0AD
:101CE00096F9C62000F09AF90F2000F090F9D02064
:101CF00000F094F9A42000F08AF9A12000F087F9FF
:101D0000E02000F08BF9D02000F081F9082000F0ED
:101D10007EF90E2000F07BF9092000F078F9092007
:101D200000F075F9052000F072F9312000F06FF92C
:101D3000332000F06CF9482000F069F9172000F01A
:101D400066F9142000F063F9152000F060F93120E5
:101D500000F05DF9342000F05AF9E12000F05EF95E
:101D6000D02000F054F9082000F051F90E2000F0C6
:101D70004EF9092000F04BF9092000F048F9152030
:101D800000F045F9312000F042F9332000F03FF92E
:101D9000482000F03CF9172000F039F9142000F039
:101DA00036F9152000F033F9312000F030F93420F5
:101DB00000F02DF9212000F031F9292000F02EF952
:101DC00010BD000000080140000C01402DE9FF5F3C
:101DD00080468A4617469B460F9D00200290CDF80C
:101DE0000080284605EBD071C1F347042046E21776
:101DF00004EB5272D2102146E31704EB5373DB104D
:101E0000A4EBC3030BB1012300E000231A446A438F
:101E100092B20192A7F12000C7B20AEB0500401E62
:101E200083B208EB0400401E82B251464046FFF7E1
:101E30007FFE002669E00C2D07D107EB47003549EE
:101E400001EB8000805D03901BE0102D05D132482E
:101E500000EB0710805D039013E0182D07D107EB0E
:101E600047002E4901EB0010805D039009E0202D12
:101E700005D12B4800EB8710805D039001E0BDE8A1
:101E8000FF9F4FF000093AE01098C8B9012000FA0E
:101E900009F00399084018B1584600F0AFF802E085
:101EA0000E9800F0ABF80298401CC0B20290029865
:101EB00090FBF4F104FB1100E8B90020029021E04E
:101EC000012000FA09F00399084020B15A46514612
:101ED0004046FFF74AFE08F101001FFA80F800981B
:101EE000A8EB0000A04206D1DDF800800AF1010055
:101EF0001FFA80FA06E009F1010000F0FF09B9F1CC
:101F0000080FC1DB00BF701C86B20198864292DBCD
:101F100000BFB4E742490008B64D0008A6530008C8
:101F2000766500082DE9FF4F85B0074691461D46AE
:101F3000DDE913A600200490304606EBD071C1F312
:101F4000470B002434E0281B401EC1B20A2001F0D8
:101F500036FBB9FBF0F00A21B0FBF1F201FB1208ED
:101F60000498A0B9681EA04211DDB8F1000F0CD191
:101F7000002004FB0B71CDE900A6029088B220225C
:101F8000129B0699FFF722FF10E001200490002029
:101F900008F13001CAB204FB0B71CDE900A6029032
:101FA00088B2129B0699FFF711FF00BF601CC4B2F4
:101FB000AC42C8DB09B0BDE8F08F2DE9FE4F064604
:101FC0000F4614469846DDE90D5ADDF8309010E0D2
:101FD000CDE9015ACDF80090227843463946304683
:101FE000FFF7F4FE284605EBD07106EB61018EB2D7
:101FF000641C20780028EBD1BDE8FE8F10B50446A4
:10200000201200F01BF8E0B200F018F810BD10B577
:102010000446204600F012F810BD000010B504463A
:1020200002210548FFF7F9FB204600F007F80221DE
:102030000148FFF7F4FB10BD000C014070B50446E9
:1020400010211248FFF7E9FB002517E020210F4877
:10205000FFF7E3FB04F0800020B180210B48FFF77D
:10206000DEFB03E080210948FFF7D7FB202107486A
:10207000FFF7D5FB6006040E681CC5B2082DE5DB32
:1020800010210248FFF7CBFB70BD000000080140A3
:102090000EB5002010214FF6FF720346CDE9002156
:1020A00002902BA232213C20FFF787FF0020102155
:1020B0004FF6FF720346CDE90021029029A2462186
:1020C0003C20FFF77AFF002010214FF6FF724FF4FB
:1020D0007843CDE90021029023A26E213E20FFF734
:1020E0006CFF002010214FF6FF724FF47843CDE9CA
:1020F000002102901FA2A0213C20FFF75EFF0020DC
:1021000010214FF6FF721F23CDE9002102901CA27F
:10211000B4213C20FFF751FF002010214FF6FF7241
:102120001F23CDE90021029017A2C8213C20FFF710
:1021300044FF002010214FF6FF721F23CDE900213C
:10214000029014A2DC213C20FFF737FF0EBD0000F7
:102150004865616C7468204D6F6E69746F72696E4A
:10216000670000004D480000202020202D20202D59
:102170000000000020203A20203A2020000000002B
:1021800048523D202020000053704F323D20202037
:1021900000000000543D202020202E20204300007D
:1021A00000BFFEE7704710B54FF4A06000F03AF8AA
:1021B00010BD000070B5002100230F22C47804B3C5
:1021C000154C246804F4E064C4F5E064210AC1F10C
:1021D0000403CA40447804FA03F18478144021438C
:1021E00009010E4C0678A155047804F01F0501245E
:1021F000AC4005786D11AD0005F1E025C5F8004152
:1022000009E0047804F01F050124AC40044D067871
:10221000761145F8264070BD0CED00E000E400E0CA
:1022200080E100E002490143024A1160704700006A
:102230000000FA050CED00E001490862704700005B
:1022400000000E427047000029B1064AD2690243DD
:10225000044BDA6104E0034AD2698243014BDA613C
:10226000704700000010024029B1064A92690243FB
:10227000044B9A6104E0034A92698243014B9A61DC
:1022800070470000001002400149086070470000DC
:10229000400442420348406A40F08070014948626D
:1022A000704700000010024030B5002100220024D9
:1022B00000232D4D6D6805F00C0121B1042905D0D6
:1022C000082923D105E0294D056022E0274D05604E
:1022D0001FE0254D6D6805F47012234D6D6805F4FF
:1022E0008034022505EB92421CB9214D554305600F
:1022F0000BE01D4D6D6805F400351DB11C4D5543B7
:10230000056002E0194D5543056002E0174D056078
:1023100000BF00BF144D6D6805F0F0010909154DAF
:102320006B5C0568DD4045600F4D6D6805F4E0614C
:10233000090A104D6B5C4568DD4085600A4D6D688B
:1023400005F46051C90A0B4D6B5C4568DD40C56002
:10235000054D6D6805F44041890B074D6B5CC56800
:10236000B5FBF3F5056130BD0010024000127A00A4
:1023700000093D00000000201000002010B50146BB
:102380000022002300204A11012A02D1094C2368AF
:1023900006E0022A02D1074C236A01E0054C636A79
:1023A00001F01F02012494401C400CB1012000E008
:1023B000002010BD0010024000210B4A11700A4A93
:1023C000203A82F82010012802D0042808D103E026
:1023D0000121054A117004E00521034A117000E053
:1023E00000BF00BF70470000201002400149086094
:1023F000704700003C0442420249096A0143014A15
:1024000011627047001002400348008840F010003D
:1024100001490880704700000428004003480088F4
:102420004FF6EF71084001490880704704280040CA
:1024300070B50026002400253B4806883604001DA0
:10244000008806443948B6FBF0F439480088A042B9
:102450003CD037490C8040F2B27510E02846FFF7B7
:1024600035FB40B1B4F5B77F02D3A4F5B77404E0EF
:10247000681C85B206E0A4F26D14681C85B2B4F540
:10248000B67FEBD800BF2B488580002516E0294990
:102490008888FFF71BFB30B1012D04D11D2C01D31F
:1024A0001D3C09E00CE02448405DA04203D82248CE
:1024B000405D241A00E003E0681C85B21C2CE6D2C3
:1024C00000BF681C1B498871601CC8711748B6FBA7
:1024D000F0F100FB11644FF46160B4FBF0F01549BA
:1024E00008704FF46160B4FBF0F100FB11403C2137
:1024F000B0FBF1F00F4948704FF46160B4FBF0F1AC
:1025000000FB11403C21B0FBF1F201FB1200094934
:1025100088700B46DA799979988800F00FF80549A8
:102520000872002070BD0000182800408051010092
:10253000180000206C0000205A480008F0B503463F
:102540000C461546642093FBF0F0C6B2642093FB62
:10255000F0F700FB1730C1B2132E02DD01F1640069
:10256000C1B20846CF1701EB977701EBA707BAB2C4
:10257000072092FBF0F700FB172082B25719601E6C
:10258000DFF82CC01CF80000384482B2CF1701EBF2
:102590009777BF10A1EB87071FB9032C01DA501EF4
:1025A00082B2072092FBF0F700FB1720C0B2F0BD0B
:1025B0004E48000810B51148008800F0010008B12D
:1025C000FFF736FF0D48008800F0020028B10B48E5
:1025D000008820F00200094908800848008840F679
:1025E000FA7108400549088000BF0448008800F0DF
:1025F00020000028F9D001F04DF910BD042800405A
:1026000029B1064A12880243044B1A8004E0034AA7
:1026100012888243014B1A80704700000028004056
:1026200010B5002400F050F80420FEF72DFF45F20D
:10263000500188423AD001214FF0C050FFF704FE0C
:102640000120FFF7F9FDFEF717FF0120FFF7B4FEA9
:1026500004E0601CC4B20A2000F0FCFA4120FFF73D
:102660008DFE0028F5D0FA2C01DB012010BD4FF4BF
:102670008070FFF7C1FE0120FFF7B8FE00F0BCF844
:1026800000F0B0F801210846FFF7BAFF00F0AAF801
:1026900047F6FF7000F096F800F0A4F8FEF766FE2B
:1026A00045F250010420FEF7FDFE07E000F0A4F81B
:1026B00001210846FFF7A4FF00F094F8FFF7B8FEE9
:1026C000FFF7E8FD0020D1E708B503208DF80000F2
:1026D00001208DF8010000208DF8020001208DF806
:1026E00003006846FFF766FD08BD00002DE9F05FB6
:1026F00006460F4690469946DDE90AAB002440F2B3
:10270000B270864203DB40F63300864202DD0120D0
:10271000BDE8F09F40F2B2750AE02846FFF7D6F90F
:1027200010B11D48044401E01C480444681C85B2F3
:10273000B542F2DB781EC7B2002510E01848405DB4
:1027400040F2A321484304EBC0143046FFF7BEF922
:1027500018B1012D01D113480444681C85B2BD4253
:10276000ECDBA8F1010040F2A321484304EBC014C4
:10277000C9EB4910C0EB092004EB0014CAEB0A10A6
:1027800004EB80045C4400F02DF8204600F00CF8C7
:1027900000F028F80020BBE70085E2018033E1016A
:1027A0005A4800088051010000B50246FFF72CFE90
:1027B000100C03490880091D0A80FFF72FFE00BD99
:1027C0001828004000B50246FFF71EFEC2F3034082
:1027D00003490880091D0A80FFF720FE00BD0000A4
:1027E0000828004000BF0348008800F020000028AF
:1027F000F9D0704704280040074800884FF6F77169
:1028000008400549088000BF0348008800F0080020
:102810000028F9D0704700000428004070470428C1
:1028200008D14FF0E021096941F004014FF0E022A6
:10283000116107E04FF0E021096921F004014FF038
:10284000E0221161704770471748006840F00100AE
:10285000154908600846406848600846406840F4EA
:10286000C01048600846406848600846006840F06C
:102870008070086000BF0C48006800F000700028FD
:10288000F9D00948406820F003000749486008462D
:10289000406840F00200486000BF0348406800F014
:1028A0000C000828F9D17047001002402DE9FE4FB6
:1028B0004FF000094FF0010A4FF0020B01F0DCF875
:1028C0008146504600F086FE0546584600F082FEDE
:1028D000064640F22551234800F09DF800283FD0DD
:1028E00040F225511F4800F06EF81E4800F04EF9E6
:1028F0000446312C04D0322C11D0332C2FD11EE0C1
:10290000484601F09FFC07463A460B4616A168462A
:10291000FDF76CFC6946134800F041F91FE04DB12A
:102920002A4616A16846FDF761FC69460D4800F08D
:1029300036F903E014A10B4800F031F90FE04EB175
:10294000324615A16846FDF751FC6946054800F07E
:1029500026F903E013A1034800F021F900BF00BFEE
:10296000BDE8FE8F0038014054656D70203D202584
:10297000362E316620A1E60A000000004852203DB4
:10298000202536640A0000004852203D2057616926
:10299000742E2E2E0A00000053704F32203D202549
:1029A00036640A0053704F32203D20576169742EFF
:1029B0002E2E0A0001F40072B2F5007F00D100BF94
:1029C000CA430280704710B50022002340F66A1403
:1029D000A14200D100BF0A1201249440A3B2DC43FB
:1029E000048010BD21B1828942F40052828104E04A
:1029F00082894DF6FF731A4082817047024600209B
:102A0000B1F5007F00D100BF13880B400BB101204E
:102A100000E00020704770B5024600240023002526
:102A2000002040F66A16B14200D100BFC1F3421542
:102A300001F01F03012606FA03F3012D02D1968946
:102A4000334006E0022D02D1168A334001E0968A17
:102A500033400C12012606FA04F41688344013B1F0
:102A60000CB1012000E0002070BDF0B50346002449
:102A700000260025002040F66A17B94200D100BFA9
:102A80001846C1F3421401F01F06012707FA06F5A4
:102A9000012C01D10C3004E0022C01D1103000E0F7
:102AA00014301AB107682F43076002E00768AF438C
:102AB0000760F0BD2DE9F04786B005460E460024BC
:102AC000A24600BFA1460027B08900B100BF2F4633
:102AD0002C8A4CF6FF700440F08804432C82AC89A9
:102AE0004EF6F3100440B0883189084371890843D9
:102AF0000443AC81AC8A4FF6FF400440B0890443E4
:102B0000AC8201A8FFF7D0FB1F48874202D1DDF855
:102B100010A001E0DDF80CA0A88900F4004040B14D
:102B20000AEBCA0000EB0A1031684900B0FBF1F86B
:102B300007E00AEBCA0000EB0A1031688900B0FB1D
:102B4000F1F86420B8FBF0F004012009642101FBD6
:102B50001089A88900F4004040B1322000EBC90080
:102B6000B0FBF1F000F00700044308E0322000EB76
:102B700009106421B0FBF1F000F00F0004432C8138
:102B800006B0BDE8F08700000038014001468888A3
:102B9000C0F308007047C1F308028280704770B527
:102BA00006460C46002540213046FFF703FF0FE0A4
:102BB000615D3046FFF7EFFF00BF40213046FFF771
:102BC0001DFF0028F9D040213046FFF7F3FE6D1CB1
:102BD000605D0028ECD170BD00BFFEE7490050EAFF
:102BE000C12018BF04204A0D18BF40F0010040F278
:102BF000FF72B2EB515F08BF40F00200012808BF2E
:102C00000520704730380A2801D201207047002083
:102C10007047014600BF704710B504466FF00400CE
:102C2000FFF7FDFDE11704EB5171C1F3C701074A3E
:102C300011701046007800EB4001C1EBC0104FF658
:102C4000FF7101EAC0000249088010BD1400002095
:102C50001600002001460D4A12884A434FF0E02337
:102C60005A6100229A6101221A6100BF4FF0E022EE
:102C7000106900F001021AB100F48032002AF5D088
:102C800000224FF0E0231A619A617047160000207D
:102C900001460D4A12784A434FF0E0235A61002260
:102CA0009A6101221A6100BF4FF0E022106900F022
:102CB00001021AB100F48032002AF5D000224FF050
:102CC000E0231A619A617047140000201CB5FFF7D9
:102CD000BBFDFFF768FA2420FFF79EFFFEF7CCFD4F
:102CE000FEF7A4FF4FF6FF704FF49673F022002119
:102CF00000900846FEF747FFFEF7E4FBFFF7C8F930
:102D0000FFF78EFC00F003F901A9002000F0D6F8CF
:102D100000F010F84FF4165000F046FFFEF7F4FEF6
:102D200007E0012000F056FC022000F053FC00F008
:102D3000A3FEF6E708B501210820FFF795FA202049
:102D4000ADF8000004208DF8030069462548FEF721
:102D500088FCC021022000F0E4F808B9002008BD7A
:102D60000021032000F0DDF808B90020F7E700217A
:102D7000042000F0D6F808B90020F0E70021052073
:102D800000F0CFF808B90020E9E70021062000F0A4
:102D9000C8F808B90020E2E7EF21082000F0C1F8E8
:102DA00008B90020DBE70321092000F0BAF808B9D0
:102DB0000020D4E72F210A2000F0B3F808B9002042
:102DC000CDE717210C2000F0ACF808B90020C6E7C9
:102DD00017210D2000F0A5F808B90020BFE7012059
:102DE000BDE70000000C0140F8B504460D46002088
:102DF00028602060694600F061F86946012000F013
:102E00005DF8FEF7E5FDAE20FEF7AEFDFEF72CFE09
:102E100000B14FE00720FEF7A7FDFEF725FE00B149
:102E200048E0FEF7D5FDAF20FEF79EFDFEF71CFE45
:102E300000B13FE0FEF768FD0646FEF7F5FC3604FC
:102E4000206830442060FEF75FFD0646FEF7ECFC8C
:102E50003602206830442060FEF756FD0646FEF735
:102E6000E3FC206830442060FEF74EFD0646FEF786
:102E7000DBFC3604286830442860FEF745FD064632
:102E8000FEF7D2FC3602286830442860FEF73CFD8D
:102E90000646FEF711FD2868304428602068C0F31C
:102EA000110020602868C0F311002860FEF7B6FD0D
:102EB0000120F8BDFEF7B2FD0020FAE770B5054627
:102EC0000C46FEF785FDAE20FEF74EFDFEF7CCFD6D
:102ED00000B118E02846FEF747FDFEF7C5FD00B13A
:102EE00011E0FEF775FDAF20FEF73EFDFEF7BCFDDD
:102EF00000B108E0FEF708FD2070FEF7DDFCFEF7EC
:102F00008DFD012070BDFEF789FD0020FAE710B5A8
:102F10004021092000F005F808B9002010BD01206B
:102F2000FCE770B505460C46FEF752FDAE20FEF7F5
:102F30001BFDFEF799FD00B111E02846FEF714FDD8
:102F4000FEF792FD00B10AE02046FEF70DFDFEF708
:102F50008BFD00B103E0FEF761FD012070BDFEF7BF
:102F60005DFD0020FAE72DE9F84705460C461646B8
:102F70001F46DDE90A9ADDF824803B4632462146A9
:102F80002846CDF8008000F051FA4B4632462146E3
:102F9000284600F0A0FA2068504501DA206800E0D9
:102FA00050462060BDE8F8872DE9FF4FC5B0884640
:102FB000994600204490002406E0459850F82410DB
:102FC000449808444490641C4445F6DB4498B0FBA4
:102FD000F8F04490002409E0459850F824104498F3
:102FE000081A4042FE4941F82400641C4445F3DBC2
:102FF000002417E0FA4951F824200B46611C53F8CD
:1030000021100A44A11C53F821100A44E11C53F872
:1030100021105018C11700EB917189101A4642F81F
:103020002410641C922CE5DB0027002404E0EC480B
:1030300050F824000744641C962CF8DB962097FB7C
:10304000F0F71E2F00DA1E273C2F00DD3C2700245E
:1030500004E0002030A941F82400641C0F2CF8DBA8
:103060000F2004219623DE4ACDE90071029040A989
:1030700030A8FFF778FF00201190409802282DDB40
:1030800001240BE030A850F82410601E30AA52F83A
:103090002000091A119808441190641C4098844239
:1030A000F0DB4098401E119991FBF0F0119040F632
:1030B000B831119891FBF0F1539801605398006872
:1030C0007D2803DC0121549801700EE040F2E731C5
:1030D0005398016000215498017006E040F2E731F6
:1030E00053980160002154980170002407E030A833
:1030F00050F82400801C12A941F82400641C409858
:103100008442F4DB00240CE0459850F82400B449D4
:1031100041F82400479850F82400B24941F82400AF
:10312000641C4445F0DB0020429000242DE0012087
:10313000439012A850F824A04FF080703F900AF1FD
:103140000500B0F5F77F1FDC0A3800281CDD0546B6
:1031500011E0A34850F825103F9881420ADA4398BD
:1031600008B1002043909E4850F825003F9021A8C8
:1031700040F824506D1C0AF105008542E9DB4398B4
:1031800010B94298401C4290641C40988442CEDBA7
:103190004298022809DA40F2E730C9F8000000211D
:1031A0005298017049B0BDE8F08F00242EE08C49A0
:1031B00051F824200B46611C53F821100A44A11C2D
:1031C00053F821100A44E11C53F821105018C1177C
:1031D00000EB917189101A4642F82410814951F888
:1031E00024200B46611C53F821100A44A11C53F8FB
:1031F00021100A44E11C53F821105018C11700EBAC
:10320000917189101A4642F82410641CB4F5F87FB5
:10321000CDDB002005900026002404E0002006A954
:1032200041F82400641C052CF8DB00240EE021A8E2
:1032300050F82400B0F5FA7F07DD40F2E730C9F816
:103240000000002152980170ACE7641C429884424F
:10325000EDDB0024A4E04FF07F400D900C9021A9FD
:10326000601C51F8200051F82410401A03287DDD1D
:1032700021A850F8245016E0594850F825100C9811
:10328000814204DD564850F825000C900B955548B6
:1032900050F825100D98814204DD524850F8250061
:1032A0000D90AB466D1C21A9601C51F82000A8426E
:1032B000E2DC601C51F820004A4951F8200021A9A5
:1032C00051F82410474A52F82110401A21A951F808
:1032D0002410ABEB01014843109021A9601C51F868
:1032E000200051F82410411A109890FBF1F021A908
:1032F00051F8241052F8211008441090104650F84C
:103300002B101098081A109021A9601C51F8200069
:10331000334951F8200021A951F82410304A52F8BD
:103320002110401A21A951F824200B99891A4843E9
:103330000F9021A9601C51F8200051F82410411A67
:103340000F9890FBF1F021A951F82410244A52F86B
:10335000211008440F90104650F82B100F98081AAF
:103360000F900C9910984843C01100E017E00490AA
:103370000D990F984843C0110390039800280EDD63
:10338000052E0CDA049850B1049800EB80008100FF
:10339000039891FBF0F006A941F82600761C641C06
:1033A0004298401EA0423FF756AF314606A800F0B3
:1033B000CBF8304606EBD071491041914199012973
:1033C00012DD4199491E06AA52F8212006AB419907
:1033D00053F82110501800EBD0714910059108E006
:1033E00078000020D002002006A9419851F8200062
:1033F0000590059802280DDD0598B8280ADA0A49D3
:103400000598085C0E900E98C9F8000001215298AA
:10341000017006E040F2E730C9F800000021529840
:10342000017000BFBEE600008A4800082DE9F047A1
:1034300005461E46089C01204FF000080023002787
:103440004FF0040C4FF00009C1F800903DE0BFBB05
:1034500052F82090A14509DD52F820A0A0F1010901
:1034600052F82990CA4501DD4FF00108B8F1010F6B
:103470002AD152F82090A14505DA634503DA4FF0CE
:103480000008002320E063451BD152F82090A1459D
:103490001ADAA0F1010952F82990A14514DBD1F8FC
:1034A0000090B9F10F0F07DAD1F800A00AF1010975
:1034B000C1F8009045F82A0000239846082703E049
:1034C00001E05B1C00E07F1E401CA6F10109814564
:1034D000BDDCBDE8F0872DE9F04F05460C4692466D
:1034E000984629465046226800F049F84FF0FF36CA
:1034F00021E0D4F800B0701C2060771C18E055F86B
:103500002710701C10B94FF0FF3001E055F826006D
:10351000A1EB0009C14503DCC8F10000814506DAD2
:1035200055F827102268501C206045F822107F1C97
:103530005F45E4DB761C2068B042DADC284621686F
:1035400000F002F8BDE8F08F30B50C46012213E020
:1035500050F82230114605E04D1E50F8255040F835
:103560002150491E002904DD4D1E50F825509D4272
:10357000F2DC40F82130521CA242E9DB30BDF0B54C
:1035800003461546012217E051F82240104605E097
:10359000461E51F8266041F82060401E002808DDD4
:1035A00053F82470461E51F8266053F82660B7423F
:1035B000EEDC41F82040521CAA42E5DBF0BD10B51C
:1035C0000246012000E050430B1EA1F10104E1B2CC
:1035D000F9D110BD2DE9FE4F81464FF4FA7099499B
:1035E00008600024984F4FF00008642420E09748BA
:1035F00050F82410A4F16400944A42F82010944832
:1036000050F82410A4F16400914A42F820108F4829
:1036100050F82400B84202D28C4850F824708B48ED
:1036200050F82400404502D9884850F82480641C92
:10363000B4F5FA7FDBDB4FF4C8744CE0601E8349BD
:1036400051F82050824A02EB8401804A02EB840048
:10365000FFF7CAFB7D4850F82400A8421DD97B49DA
:1036600051F82410481B00F091FF8246A8EB070098
:1036700000F08CFF83465946504600F071FE8246AA
:103680007449504600F096FF8246504600F02AFFEB
:10369000361A002E1EDA00261CE06C4951F8241060
:1036A000681A00F073FF8246A8EB070000F06EFF77
:1036B00083465946504600F053FE824665495046BF
:1036C00000F078FF8246504600F00CFF0644FF2EC3
:1036D00000DDFF26641CB4F5FA7FAFDB5E485F496E
:1036E0005F4A604BCDE900210290584A5548016875
:1036F0005748FFF759FCB9F1010F03D0B9F1020F98
:103700007DD14DE054480078C0B3002010214FF621
:10371000FF720346CDE90021029053A2B421582044
:10372000FEF74BFC10204FF6FF710022CDE900217F
:1037300002904A48008882B20323B4215820FEF741
:10374000F1FB4C480068454909680844494908604C
:1037500049480068401C48490860464800680968B4
:1037600090FBF1F045490860434800680A2813D1EE
:103770000020414908603F4908600DE0FFE7002054
:1037800010214FF6FF720346CDE9002102903CA2C2
:10379000B4215820FEF711FC38480068BDE8FE8FC0
:1037A0002F48007860B3002010214FF6FF720346C7
:1037B000CDE9002102902CA2C8216920FEF7FDFB73
:1037C00010204FF6FF710022CDE90021029025481C
:1037D000008882B20323C8216920FEF7A3FB2A4890
:1037E000006820490968084427490860274800689C
:1037F000401C2649086024480068096801E01EE072
:103800000DE090FBF1F022490860204800680A288A
:1038100012D100201D4908601B4908600CE00020FF
:1038200010214FF6FF720346CDE90021029014A249
:10383000C8216920FEF7C1FB15480068AEE70020EB
:10384000ACE7000040000020FFFF0300A8110020AB
:10385000D809002000007F43500000204C000020C9
:10386000480000204400002020202020202020208C
:10387000202000005C000020540000206400002094
:10388000576169742E2E2E00600000205800002021
:10389000680000200EB510204FF6FF710022CDE920
:1038A000002102905E48828805236E213420FEF7B5
:1038B00039FB10204FF6FF710022CDE90021029064
:1038C0005748827902236E216920FEF72BFB1020D6
:1038D0004FF6FF710022CDE9002102905048C279D5
:1038E00002236E218720FEF71DFB4D48007A072832
:1038F00067D2DFE800F00412202E3C4A5800002076
:1039000010214FF6FF720346CDE90021029045A237
:1039100082213C20FEF751FB53E0002010214FF69E
:10392000FF720346CDE90021029041A282213C2092
:10393000FEF743FB45E0002010214FF6FF720346DF
:10394000CDE9002102903DA282213C20FEF735FB0B
:1039500037E0002010214FF6FF720346CDE9002129
:10396000029039A282213C20FEF727FB29E00020AB
:1039700010214FF6FF720346CDE90021029035A2D7
:1039800082213C20FEF719FB1BE0002010214FF69E
:10399000FF720346CDE90021029031A282213C2032
:1039A000FEF70BFB0DE0002010214FF6FF720346DF
:1039B000CDE9002102902DA282213C20FEF7FDFAE4
:1039C00000BF00BF10204FF6FF710022CDE900219B
:1039D0000290134802780223A0213C20FEF7A2FAAD
:1039E00010204FF6FF710022CDE9002102900C4813
:1039F00042780223A0215420FEF794FA10204FF6BB
:103A0000FF710022CDE9002102900548827802234F
:103A1000A0216C20FEF786FA0A20FFF71BF90EBDE5
:103A20006C00002053756E64617920202000000036
:103A30004D6F6E646179202020000000547565731D
:103A400064617920200000005765646E65736461CD
:103A50007900000054687572736461792000000079
:103A600046726964617920202000000053617475FA
:103A700072646179200000002DE9FE4300240025D6
:103A8000A046FDF76FFD0446204600F047FD0546C1
:103A9000284600F07BFD0646214600F057FE804692
:103AA0003349404600F086FD80463249404600F0EA
:103AB00057FC8046204600F0C5FB06462E4A2F4B99
:103AC00000F086FA2FD8002010214FF6FF7203462F
:103AD000CDE9002102902AA2DC215020FEF76DFAE8
:103AE000204600F01BFD86B210204FF6FF71002229
:103AF0000223CDE9002102903246DC215A20FEF754
:103B000011FA404600F00AFD86B210204FF6FF7110
:103B100000220123CDE9002102903246DC217820E9
:103B2000FEF700FA21E0204600F0F8FC86B21020F3
:103B30004FF6FF7100220223CDE9002102903246A8
:103B4000DC215A20FEF7EEF9404600F0E7FC86B291
:103B500010204FF6FF7100220123CDE900210290D1
:103B60003246DC217820FEF7DDF92046BDE8FE83F1
:103B70000000C8420000204148AFBC9AF2D77ABE8C
:103B80002D00000070B50346002409E013F8015B26
:103B900011F8016BB54201D0002070BD601CC4B2A9
:103BA0009442F3DB0120F8E710B586B0044601210A
:103BB00044F20500FEF758FB4FF40070ADF8140016
:103BC00003208DF8160018208DF8170005A91C4851
:103BD000FDF747FD4FF48060ADF8140004208DF828
:103BE000170005A91648FDF73CFD25208DF80000BB
:103BF00003208DF801008DF8020001208DF80300EC
:103C00006846FEF7D7FA01940020ADF80800ADF839
:103C10000A00ADF80C00ADF810000C20ADF80E0055
:103C200001A90848FEF746FF012240F22551054848
:103C3000FEF71BFF01210348FEF7D4FE06B010BDBE
:103C4000000801400038014010B500290AD008786A
:103C5000002807D005487844FCF780FF002801D0F1
:103C6000002010BD0248784410BD00001A47000033
:103C70001247000021F00042A2F16052B2F5801F0D
:103C800001F0004328BFD2F17F6C0BD95FEA001C22
:103C900043EAC20242EB507018BF704728BF20F0C1
:103CA00001007047B2F5801FBCBF184670474FEA4D
:103CB000410C1CF5001F02D2084600F042BD70B551
:103CC00000F06CFA00000089FFF7F6BF4FF00040EB
:103CD000A0F580007047491058BFC1F140415B100A
:103CE00058BFC3F140438B42EFF3008070470000A0
:103CF0002DE9C04130B4DFF8A0C23CEA111418BF6E
:103D00003CEA131400F0EC8081EA03051CEA11146C
:103D100044EAD57418BF1CEA131500F0C780A4EB61
:103D200005044FF0004545EAC12145EAC32341EAB5
:103D3000505143EA525304F17F74994204F5003420
:103D40004FEAC0204FEAC22208BF904200F09C8098
:103D50004FEA13650FF24016765D4FEA134506FBF6
:103D600005F7C7F1807706FB07F74FEAD737A7FBC0
:103D700003687642C8F58038A7FB06CE38BFA8F1A5
:103D8000010807FB08E64FF0000EA6FB028CE6FBDD
:103D900003CEDCF1000CCEF1004E38BFAEF1010EC7
:103DA000A6FB0C584FF000074FF00005E6FB0E870E
:103DB000A1FB08C6A0FB07CE16EB0E0645F10005D9
:103DC000E1FB076515F1E04E7EBFA4F580345FEAA4
:103DD00046066D4116F1800745F100054FEA1727A9
:103DE0004FEA066647EA0567A6F1DE46B6F1805F50
:103DF0004FEA15251FD9384624F0010C05EBC47194
:103E0000BCF1FE6F01EB0C1102D8F0BCBDE80081E3
:103E100024425CBF01F5801E9EEAC47F02D4F0BC40
:103E2000BDE80081244238D4F0BCA1F1C041BDE816
:103E3000004100F001BA4FEAD22242EA43524FEA6F
:103E4000D323A7FB02864FEAD02040EA415007FB6C
:103E500003661EEA0E0F4FEAD12105FB026658BF2A
:103E6000A6EB0056B6EB00564FEA520E4EEAC37E62
:103E700018EB0E0E56EB530EBDD518EB02085E4143
:103E80007F1C55F10005B6E74FF480154FF0000791
:103E90004FF000064FF00008ADE7F0BC4FF0000017
:103EA00001F1C04101F00041BDE8008111EA0C1FA1
:103EB0000CEA131500D00CE013EA0C1F00F025806B
:103EC0004FF00000F0BC81EA030101F00041BDE8C1
:103ED0000081F0BCBDE8004181EA030100F0ACB90B
:103EE000F0BCBDE8004170B500F058F9097EFC3E19
:103EF00000F007B881EA03014FF0000001F0004133
:103F0000704781EA030100F097B9F0BCBDE80041B9
:103F10004FF0000021497047FFFDFBF9F7F5F4F27F
:103F2000F0EEEDEBE9E8E6E4E3E1E0DEDDDBDAD854
:103F3000D7D5D4D3D1D0CFCDCCCBCAC8C7C6C5C4B2
:103F4000C2C1C0BFBEBDBCBBBAB9B8B7B6B5B4B3C9
:103F5000B2B1B0AFAEADACABAAA9A8A8A7A6A5A4B4
:103F6000A3A3A2A1A09F9F9E9D9C9C9B9A99999878
:103F70009797969595949393929191908F8F8E8E1B
:103F80008D8C8C8B8B8A89898888878786858584A8
:103F900084838382828181800000FF070000F87F94
:103FA00010F0004248BF4042B0FA80F310FA03F12B
:103FB0000AD0C3F11D0303F580634FEA415002EBC1
:103FC000035202EBD12170474FF000007047000010
:103FD00051EA030C17D41CF5801F58BFBCF5801F95
:103FE00000F10680994218BF704708BF90427047A1
:103FF00007D711F5801F58BF13F5801F19D49942B8
:104000007047894270471CF5801F08D5BCF5801F9A
:10401000F7D58B4218BF704708BF824270474FF4F4
:10402000001C1CEB410F38BF1CEB430F01D28B422D
:10403000704770B500F0B2F8922449004FF000517B
:104040004FF08053FFF747BEDFF848C170B51CEA58
:10405000111E1EBF1CEA13159EEA0C0F95EA0C0FE9
:1040600000F06F8081EA030423EA4C134EEAD47E09
:1040700021EA4C1141F4801143F48013AE44A1FBBA
:10408000024CA0FB0365AEF17F7E361955EB0C05A3
:10409000A1FB034C4CF10003A0FB021C16EB0C0629
:1040A000654153F10003094218BF46F0010613F4BD
:1040B000007F0BD14FEA03314FEA0530340341EA68
:1040C000155140EA16506FF003020AE04FEAC3218F
:1040D0004FEAC520F40241EA555140EA56506FF0CC
:1040E000020202EB2E4201EB025585EACE710AD0A4
:1040F0005FEA440C18BF24F0004450F1000041F185
:10410000000120EAD47040F2FE7C624500D270BD0E
:10411000A84214BF4FF080444FF04044002E08BF27
:104120000024BEF1806FA8BFA1F1C041BDE870407E
:1041300080F282804FF0000001F1C04101F00041A7
:1041400070479EEA0C0F0CEA131518BF95EA0C0F86
:1041500006D04FF0000081EA030E0EF0004170BD62
:1041600000F01CF88900013E00F007B800F009B823
:104170004FEA430C5FEA5C5C08D081EA030100F07F
:104180005BB84FEA410C5FEA5C5CF6D14FF000008F
:10419000014970470000FF070000F87F0EF1020E92
:1041A0002EF0030E5EF8046B364205D4012A43EB71
:1041B000030515F5001F12D8012841EB010C1CF571
:1041C000001F0CD80ED14FEAD17C15F5001F0CEB67
:1041D0004C0C0CF1020C08BF4CEBD37C04E04FF00C
:1041E000080C01E04FEAD37C0CEB4C0526FA05F6EF
:1041F00006F00706B6F1040C06D20EEB860CBDE8FD
:1042000070404CF0010C6047DFE80CF0090B020233
:104210004FF000414FF00000A1F5002170BD19469C
:104220001046012851EB010418BFD4F5001484BFD7
:10423000002001F0004170BD0808A0F500114FEA10
:104240003101704743004FEAD30C4FEA3C0C434026
:104250001FBF40070CF1605113F0FE4F70471CF078
:10426000006F03D100200CF0004170470CF00043B8
:1042700043EA507010B540EACC0000F01CFA00BFD1
:10428000000000924FEA0001FFF7D6BF4FF0004157
:104290004FF00000A1F500217047000090EA010FE7
:1042A00048BF81F0004100F16282421A3CBF801A8F
:1042B00089184FEAD0524FF07F4C1CEA410FA2EB15
:1042C000D15318BF9CEA026F00F03B804FF0004CC6
:1042D0004CEA00204CEA012121FA03FC10EB0C0C03
:1042E0001ED202F1FF325FEA1C2040EBC25038BF01
:1042F00070471CF07F0F4FEA400C18BFBCF17F4F96
:1043000038BF7047C3F12003994008BF20F0010077
:10431000BCF17F4F38BF7047A0F1C04000F011BA28
:104320004FEA3C00000A40EBC25028BF1CF0FF0FD0
:104330004FEA400CE6D018BFBCF17F4F38BF704742
:10434000EAE79CEA026F05D010EA5C0F08BF00F0B4
:104350000040704710B500F0AEF900BF64FBBE3EF0
:104360004FF47F0C1CEAD0121EBF1CEAD11392EA54
:104370000C0F93EA0C0F00F0858090EA010F48BF04
:1043800042F4807240F4000C41F400002CF07F41B4
:1043900020F07F4000B58142A2EB03020FF2081C1F
:1043A000ACEB504EC0F100009EF800E04FEA4E0E1C
:1043B00000FB0EFC38BF49004FEA2C1C02F5FA0244
:1043C0000CFB0EF34FEACE1E4FEA112C4FEAC1212F
:1043D0000EEB635E42EB22420EFB0CFC4FEA1C53D9
:1043E00000FB03114FEA112C4FEA01310EFB0CFCCC
:1043F0004FEADC4C00FB0C11C14228BF09184CEB02
:1044000003335DF804EB10EB410143EBC250B2F50E
:104410007C0F38BF704729D512F0F00F1CBF00F198
:10442000C04000F000407047008182838485868709
:1044300088898B8C8D8E8F919293959697999A9C63
:104440009D9FA0A2A3A5A7A8AAACAEB0B2B3B5B7D2
:10445000B9BCBEC0C2C5C7C9CCCED1D4D7D9DCDFA8
:10446000E2E6E9ECF0F3F7FAFE0000004FEA400C58
:104470000CF1807CBCF17E4F28BF7047B0F1C0408A
:1044800000F05FB990EA010F0CEAD11348BF42F483
:104490008072624538BF634507D213F47F0F16D090
:1044A00080EA010000F00040704710B500F003F909
:1044B000097EFC3E00F005B880EA010000F00040F3
:1044C000704780EA010000F0004000F03AB912F4B1
:1044D0007F0F04BF0248704780EA010000F031B945
:1044E0000000C07F41000B0ED3F19E0208D950F4AA
:1044F00000034FEA032323FA02F048BF404270470B
:1045000010B500F0D8F800BF499224800020704711
:104510006FF0004282EA200070470000C10DD1F127
:104520009E0206DB4FEA002343F0004323FA02F029
:104530007047004207D54FEA4001B1F1FE4F02D269
:104540004FF00000704710B500F0B5F84992248094
:10455000002070476FEA20007047000010F0004113
:1045600048BF4042B0FA80F310FA03F2C3F19D0352
:104570000BD051EAC35101EB1220530638BF7047EC
:1045800000F1010008BF20F001007047B0FA80F38D
:1045900010FA03F2C3F19D030AD0D90501EB1220F2
:1045A000530638BF704700F1010008BF20F001003A
:1045B000704700004FF47F0C1CEAD0121EBF1CEAAB
:1045C000D11392EA0C0F93EA0C0F00F0478090EAA7
:1045D000010F48BF42F480724FF0004C4CEA0020BB
:1045E0004CEA012102EB0302A0FB0113A2F5000239
:1045F000002918BF43F001035B0028BF4FEA3303D3
:1046000042EB22425FEA132C4CEBC2502EBFBCEBB4
:10461000436FB2F57C0F70474FEA036CBCF1004F5B
:1046200008BF20F00100B2F57C0F38BF70470BD5F2
:1046300082F0FF0212F5803FC8BF704700F1C04012
:10464000D8BF00F00040704700F5000C5FEA4C0C4A
:1046500048BF7047B0F1C04000F073B890EA010F56
:104660000CEAD11348BF42F48072624538BF6345FB
:1046700004D280EA010000F00040704710B500F05D
:104680001AF800BF8900013E00F007B800F009B831
:104690005FEA410C5FEA1C6C08D080EA010000F080
:1046A00050B85FEA400C5FEA1C6CF6D14FF0004056
:1046B000A0F5800070470EF1020E2EF0030E5EF89A
:1046C000044B244204D44FEA4102B2F17F4F11D887
:1046D0004FEA4003B3F17F4F0CD80ED14FEAD07CA4
:1046E000B2F17F4F0CEB4C0C0CF1020C08BF4CEB01
:1046F000D17C04E04FF0080C01E04FEAD17C0CEBD8
:104700004C0324FA03F404F00704B4F1040C06D2B9
:104710000EEB840CBDE810404CF0010C6047DFE864
:104720000CF0070802024FF00040A0F5800010BD19
:104730000846420018BFD2F1807288BF00F00040E6
:1047400010BDFF2141EAD050C005704780F0004005
:1047500090EA010F7FF5A9AD81F0004100F007B8A4
:1047600090EA010F48BF81F000413FF59EAD421A2B
:1047700004D882F00042A0EB020011444FEAD0526C
:104780004FF07F4C1CEA410FA2EBD15318BF9CEABB
:10479000026F4AD04FF0004C4CEA00204CEA012155
:1047A00021FA03FCB0EB0C0C0FD412F0FE0F36D044
:1047B0005FEA4C001DD5001240EBC25038BF704775
:1047C0001CF03F0F18BF70470BE0A2F101025FEA37
:1047D0001C2040EBC25038BF70471CF07F0F18BF41
:1047E0007047C3F12003994014BF401E20F0010020
:1047F000704780084FEA122308BF7047B0FA80FC68
:10480000A2EB0C02CCF1280C60FA0CF093EA122F08
:1048100004BF00EBC25070474FEAC3707047130AE1
:104820005FEADC1008BF7047F6E79CEA026F04D02D
:1048300010EA5C0F08BF0020704710B5FFF73BFF80
:1048400040DFF63E81F000407047FBF704BF0003F5
:10485000030601040602050003051F1C1F1E1F1E80
:104860001F1F1E1F1E1F4A616E4665624D61724109
:1048700070724D61794A756E4A756C417567536502
:10488000704F63744E6F764465635F5F5F60606016
:1048900061616161616262626262636363636363F7
:1048A00063636464646464646464646464646464CA
:1048B00064646464646463636363636363636262C4
:1048C0006262626261616161606060605F5F5F5EE1
:1048D0005E5E5D5D5D5C5C5C5B5B5A5A5959595824
:1048E000585757565655555454535252515150508B
:1048F0004F4E4E4D4C4C4B4A4A4948484746454519
:104900004443424241403F3E3E3D3C3B3A393838C9
:1049100037363534333231302F2E2D2C2B2A29289F
:10492000272625242322211F1E1D1C1B1A1917169A
:1049300015141311100F0E0C0B0A090706050302BC
:104940000100000000000000000000000000000066
:104950000404040404000004000014140A0000000D
:1049600000000000000000000A0A1F0A0A1F0A0ACD
:10497000000000040E1505060C14150E04000000BE
:1049800012150D152E2C2A1200000000040A0A36FA
:1049900015152916000002020100000000000000A9
:1049A00000001008080404040404080810000204AD
:1049B0000408080808080404020000000004150E9A
:1049C0000E150400000000000008083E0808000062
:1049D00000000000000000000000020201000000D2
:1049E0000000003F00000000000000000000000088
:1049F0000000000200000020101008080404020259
:104A0000010000000E1111111111110E0000000023
:104A1000040604040404040E000000000E11110832
:104A20000402011F000000000E11100C1010110EE6
:104A300000000000080C0C0A091F081C0000000000
:104A40001F01010F1110110E000000000C12010DCA
:104A50001311110E000000001E10080804040404C5
:104A6000000000000E11110E1111110E00000000C7
:104A70000E111119161009060000000000000400B4
:104A8000000000040000000000000004000000041A
:104A900004000000100804020204081000000000D6
:104AA00000003F003F00000000000000020408106A
:104AB00010080402000000000E1111080404000494
:104AC000000000001C22292D2D1D221C00000000CA
:104AD00004040C0A0A1E1233000000000F12120E0A
:104AE0001212120F000000001E1101010101110E2F
:104AF000000000000F1212121212120F000000002C
:104B00001F120A0E0A02121F000000001F120A0ED6
:104B10000A020207000000001C1201013911120CE8
:104B2000000000003312121E1212123300000000A7
:104B30001F0404040404041F000000003E080808C9
:104B4000080808080907000037120A060A12123777
:104B500000000000070202020202223F00000000E3
:104B60003B1B1B1B15151535000000003B121616CC
:104B70001A1A1217000000000E1111111111110E56
:104B8000000000000F12120E0202020700000000D7
:104B90000E1111111117190E180000000F12120E2C
:104BA0000A121237000000001E1101060810110F32
:104BB000000000001F1504040404040E000000009F
:104BC000331212121212120C000000003312120AD9
:104BD0000A0C040400000000151515150E0A0A0A37
:104BE000000000001B0A0A04040A0A1B000000005F
:104BF0001B0A0A0A0404040E000000001F0908042E
:104C00000402121F00001C0404040404040404042D
:104C10001C000002020404040808081010000E081A
:104C200008080808080808080E00040A0000000028
:104C30000000000000000000000000000000000074
:104C4000003F02040000000000000000000000001F
:104C50000000000C121C123C000000030202020EB5
:104C60001212120E000000000000001C1202120CB2
:104C7000000000181010101C1212123C000000005E
:104C80000000000C121E021C000000182404041E68
:104C90000404041E000000000000003C120C021C72
:104CA000221C00030202020E12121237000000043E
:104CB000040000060404040E000000080800000CB4
:104CC00008080808080700030202021A0A060A1365
:104CD00000000007040404040404041F0000000092
:104CE0000000000F15151515000000000000000F52
:104CF00012121237000000000000000C1212120CF9
:104D0000000000000000000F1212120E0207000047
:104D10000000001C1212121C103800000000001BC2
:104D200006020207000000000000001E020C101E18
:104D3000000000000004041E0404041C0000000025
:104D40000000001B1212123C000000000000001BBB
:104D50000A0A04040000000000000015150E0A0AEB
:104D6000000000000000001B0A040A1B00000000F5
:104D70000000003312120C08040300000000001EA3
:104D80000804041E000018080808080C0808080891
:104D90001800080808080808080808080808060491
:104DA00004040408040404040600160900000000BA
:104DB00000000000000000000000000000000000F3
:104DC00000000000000000000008080808080808AB
:104DD00000001818000000486C24120000000000B9
:104DE0000000000000000000002424247F121212A2
:104DF0007F12121200000000081C2A2A0A0C182830
:104E0000282A2A1C080800000022251515152A58F2
:104E10005454542200000000000C1212120A76258D
:104E20002911916E00000006060403000000000036
:104E300000000000000000402010100808080808CA
:104E40000810102040000002040808101010101074
:104E50001008080402000000000008086B1C1C6B0E
:104E600008080000000000000000080808087F088B
:104E7000080808000000000000000000000000001A
:104E80000000060604030000000000000000FE0011
:104E90000000000000000000000000000000000012
:104EA000000006060000000080404020201010088E
:104EB0000804040202000000001824424242424258
:104EC000424224180000000000080E0808080808E4
:104ED0000808083E00000000003C4242422020102A
:104EE0000804427E00000000003C4242201820409E
:104EF0004042221C000000000020302824242222EE
:104F00007E20207800000000007E0202021A264067
:104F10004042221C0000000000382402021A2642EF
:104F20004242241800000000007E222210100808CF
:104F30000808080800000000003C424242241824EF
:104F40004242423C000000000018244242426458A1
:104F50004040241C00000000000000001818000061
:104F60000000181800000000000000000008000009
:104F7000000000080804000000402010080402049B
:104F80000810204000000000000000007F0000002A
:104F90007F000000000000000002040810204020F4
:104FA0001008040200000000003C4242464020106D
:104FB0001000181800000000001C225A55555555C5
:104FC0002D42221C00000000000808181414243C84
:104FD000224242E700000000001F2222221E22423D
:104FE0004242221F00000000007C424201010101F8
:104FF0000142221C00000000001F224242424242A5
:105000004242221F00000000003F4212121E1212F4
:105010000242423F00000000003F4212121E1212E4
:105020000202020700000000003C2222010101717F
:105030002122221C0000000000E7424242427E4240
:10504000424242E700000000003E08080808080845
:105050000808083E00000000007C1010101010101E
:1050600010101010110F0000007722120A0E0A1201
:105070001222227700000000000702020202020250
:105080000202427F000000000077363636362A2AB8
:105090002A2A2A6B0000000000E346464A4A525280
:1050A0005262624700000000001C22414141414120
:1050B0004141221C00000000003F424242423E02A9
:1050C0000202020700000000001C22414141414150
:1050D0004D53321C60000000003F4242423E12121B
:1050E000222242C700000000007C42420204182035
:1050F0004042423E00000000007F490808080808BE
:105100000808081C0000000000E7424242424242F8
:105110004242423C0000000000E7424222242414A4
:105120001418080800000000006B4949494955550A
:10513000362222220000000000E74224241818181A
:10514000242442E7000000000077222214140808FB
:105150000808081C00000000007E21201010080430
:105160000442423F000000780808080808080808C0
:105170000808080878000000020204040808081063
:10518000102020204040001E101010101010101091
:10519000101010101E000038440000000000000035
:1051A00000000000000000000000000000000000FF
:1051B0000000000000FF00060800000000000000E2
:1051C000000000000000000000000000003C4278E9
:1051D000444242FC0000000000030202021A264280
:1051E0004242261A0000000000000000003844027D
:1051F0000202443800000000006040404078444211
:10520000424264D80000000000000000003C427EE2
:105210000202423C0000000000F08808087E0808F6
:105220000808083E0000000000000000007C222268
:105230001C023C42423C000000030202023A464289
:10524000424242E700000000000C0C00000E08087B
:105250000808083E00000000003030000038202020
:1052600020202020221E0000000302020272120AE7
:105270001612227700000000000E0808080808082F
:105280000808083E0000000000000000007F929225
:10529000929292B70000000000000000003B4642DE
:1052A000424242E70000000000000000003C424291
:1052B0004242423C0000000000000000001B264269
:1052C0004242221E02070000000000000078444213
:1052D0004242447840E000000000000000774C04A7
:1052E0000404041F0000000000000000007C4202D3
:1052F0003C40423E0000000000000008083E080854
:10530000080808300000000000000000006342426E
:10531000424262DC000000000000000000E742247E
:1053200024140808000000000000000000EB4949B8
:1053300055552222000000000000000000762418CD
:105340001818246E000000000000000000E742244E
:10535000241418080807000000000000007E221036
:105360000808447E000000C02020202020102020BB
:1053700020202020C000101010101010101010104D
:10538000101010101010000608080808081008086F
:105390000808080806000C32C200000000000000E7
:1053A00000000000000000000000000000000000FD
:1053B00000000000000000000000000000000000ED
:1053C00000000000000000000000000000000000DD
:1053D000000000000000000000000000000060006D
:1053E000600060006000600060006000400020001D
:1053F000200020000000000000006000600060004D
:10540000000000000000000000006006600630039D
:105410009801880044000000000000000000000027
:10542000000000000000000000000000000000007C
:10543000000000000000000000000000000010025A
:10544000100210021002FE07FE0708020801080100
:1054500008010801FE07FE0704010401040104011C
:1054600000000000000000000000000040004000BC
:10547000F00158034C03CC034C0058007000E000CE
:10548000C001C00140034C035C034C034801F00021
:1054900040004000000000000000000000000E017D
:1054A0000A01910091009100510051003A00AE03B1
:1054B000A0025004500448044804480484028403B1
:1054C00000000000000000000000000000003800A4
:1054D0006C006C006C006C006C002C0098071C01C8
:1054E0001A01330133016301E300C308C6093C0715
:1054F000000000000000000000000C001C00100074
:10550000100008000400000000000000000000007F
:10551000000000000000000000000000000000008B
:105520000000000000000000000000040002000174
:10553000800080004000400020002000200020006B
:10554000200020002000400040008000800000017A
:105550000002000400000000000002000400080037
:1055600010001000200020004000400040004000DB
:105570004000400040002000200010001000080003
:105580000400020000000000000000000000000015
:1055900000004000C0004000460C4E0FD001F0015A
:1055A0005E0F460C4000400040000000000000007C
:1055B00000000000000000000000000000000000EB
:1055C0000000000040004000400040004000FE0F8E
:1055D000400040004000400040000000000000008B
:1055E00000000000000000000000000000000000BB
:1055F00000000000000000000000000000000000AB
:10560000000000000000000000000C001C00100062
:10561000100008000400000000000000000000006E
:105620000000000000000000000000000000FE0775
:10563000000000000000000000000000000000006A
:10564000000000000000000000000000000000005A
:10565000000000000000000000000000000000004A
:10566000000000000000000000001C001C001C00E6
:10567000000000000000000000000004000600021E
:105680000003000100018000800040004000600035
:105690002000200010001000080008000C0004008A
:1056A00006000200000000000000000000000000F2
:1056B000F00098010C030C03060606060606060613
:1056C00006060606060606060C030C039801F00003
:1056D00000000000000000000000000000000000CA
:1056E00040007C00600060006000600060006000BE
:1056F0006000600060006000600060006000FC030B
:105700000000000000000000000000000000000099
:10571000F800840102030603060300030001800170
:10572000C000600020001000080204020602FE0310
:105730000000000000000000000000000000000069
:105740007800C6008601860180018001C0007000DB
:105750008001000100030003060306038601F80030
:105760000000000000000000000000000000000039
:1057700080018001C001A001A00190018801880181
:1057800084018201FE0F8001800180018001E00719
:105790000000000000000000000000000000000009
:1057A000FC0304000400040004000400F4008C0165
:1057B0000403000300030603060382018401F800CA
:1057C00000000000000000000000000000000000D9
:1057D000E00118030C030C0004000600E6011603A8
:1057E0000E0606060606060604060C021803F0005E
:1057F00000000000000000000000000000000000A9
:10580000F8070C060402040100010001800080007A
:1058100040004000400060006000600060006000E8
:105820000000000000000000000000000000000078
:10583000F8010C030606060606060C021C03F0001F
:10584000C8010C0306060606060606060C03F00150
:105850000000000000000000000000000000000048
:10586000F0000C010C0306020606060606060607F3
:105870008C0678060006000300030C018C017800FA
:105880000000000000000000000000000000000018
:1058900000000000000000000000E000E000E00068
:1058A00000000000000000000000E000E000E00058
:1058B00000000000000000000000000000000000E8
:1058C0000000000000000000000060006000000018
:1058D0000000000000000000000000006000600008
:1058E0004000200020000000000000000000000434
:1058F00000020001800040002000100008000400A9
:105900000800100020004000800000010002000498
:105910000000000000000000000000000000000087
:1059200000000000000000000000FE070000000072
:105930000000FE0700000000000000000000000062
:105940000000000000000000000000000000040053
:105950000800100020004000800000010002000448
:105960000002000180004000200010000800040038
:105970000000000000000000000000000000000027
:10598000E0031806040C040C0C0C0C0C000780013E
:1059900040004000400000000000E000E000E000A7
:1059A0000000000000000000000000000000E00017
:1059B00018030C02CC0564056605A605B604B604FA
:1059C000B604B604B602E4010C040C021803F0009D
:1059D00000000000000000000000000000000000C7
:1059E000600060005000D0009000900088008801A6
:1059F0000801F801040304030402020202060F0F67
:105A00000000000000000000000000000000000096
:105A1000FE008C030C030C030C030C038C01FC0034
:105A20000C030C020C060C060C060C060C03FE0103
:105A30000000000000000000000000000000000066
:105A4000E00318030C060C0404040600060006001C
:105A500006000600060006040C040C021803F00001
:105A60000000000000000000000000000000000036
:105A70007F008C010C030C030C060C060C060C06B4
:105A80000C060C060C060C060C030C038C017F00A4
:105A90000000000000000000000000000000000006
:105AA000FF03060306040604060086008600FE00C7
:105AB0008600860086000600060406040602FF0330
:105AC00000000000000000000000000000000000D6
:105AD000FF03060306040604060086008600FE0097
